{
  "_format": "hh-sol-artifact-1",
  "contractName": "EAS",
  "sourceName": "@ethereum-attestation-service/eas-contracts/contracts/EAS.sol",
  "abi": [
    {
      "inputs": [
        {
          "internalType": "contract ISchemaRegistry",
          "name": "registry",
          "type": "address"
        }
      ],
      "stateMutability": "nonpayable",
      "type": "constructor"
    },
    {
      "inputs": [],
      "name": "AccessDenied",
      "type": "error"
    },
    {
      "inputs": [],
      "name": "AlreadyRevoked",
      "type": "error"
    },
    {
      "inputs": [],
      "name": "AlreadyRevokedOffchain",
      "type": "error"
    },
    {
      "inputs": [],
      "name": "AlreadyTimestamped",
      "type": "error"
    },
    {
      "inputs": [],
      "name": "DeadlineExpired",
      "type": "error"
    },
    {
      "inputs": [],
      "name": "FailedCall",
      "type": "error"
    },
    {
      "inputs": [
        {
          "internalType": "uint256",
          "name": "balance",
          "type": "uint256"
        },
        {
          "internalType": "uint256",
          "name": "needed",
          "type": "uint256"
        }
      ],
      "name": "InsufficientBalance",
      "type": "error"
    },
    {
      "inputs": [],
      "name": "InsufficientValue",
      "type": "error"
    },
    {
      "inputs": [],
      "name": "InvalidAttestation",
      "type": "error"
    },
    {
      "inputs": [],
      "name": "InvalidAttestations",
      "type": "error"
    },
    {
      "inputs": [],
      "name": "InvalidExpirationTime",
      "type": "error"
    },
    {
      "inputs": [],
      "name": "InvalidLength",
      "type": "error"
    },
    {
      "inputs": [],
      "name": "InvalidNonce",
      "type": "error"
    },
    {
      "inputs": [],
      "name": "InvalidOffset",
      "type": "error"
    },
    {
      "inputs": [],
      "name": "InvalidRegistry",
      "type": "error"
    },
    {
      "inputs": [],
      "name": "InvalidRevocation",
      "type": "error"
    },
    {
      "inputs": [],
      "name": "InvalidRevocations",
      "type": "error"
    },
    {
      "inputs": [],
      "name": "InvalidSchema",
      "type": "error"
    },
    {
      "inputs": [],
      "name": "InvalidShortString",
      "type": "error"
    },
    {
      "inputs": [],
      "name": "InvalidSignature",
      "type": "error"
    },
    {
      "inputs": [],
      "name": "InvalidVerifier",
      "type": "error"
    },
    {
      "inputs": [],
      "name": "Irrevocable",
      "type": "error"
    },
    {
      "inputs": [],
      "name": "NotFound",
      "type": "error"
    },
    {
      "inputs": [],
      "name": "NotPayable",
      "type": "error"
    },
    {
      "inputs": [
        {
          "internalType": "string",
          "name": "str",
          "type": "string"
        }
      ],
      "name": "StringTooLong",
      "type": "error"
    },
    {
      "inputs": [],
      "name": "WrongSchema",
      "type": "error"
    },
    {
      "anonymous": false,
      "inputs": [
        {
          "indexed": true,
          "internalType": "address",
          "name": "recipient",
          "type": "address"
        },
        {
          "indexed": true,
          "internalType": "address",
          "name": "attester",
          "type": "address"
        },
        {
          "indexed": false,
          "internalType": "bytes32",
          "name": "uid",
          "type": "bytes32"
        },
        {
          "indexed": true,
          "internalType": "bytes32",
          "name": "schemaUID",
          "type": "bytes32"
        }
      ],
      "name": "Attested",
      "type": "event"
    },
    {
      "anonymous": false,
      "inputs": [],
      "name": "EIP712DomainChanged",
      "type": "event"
    },
    {
      "anonymous": false,
      "inputs": [
        {
          "indexed": false,
          "internalType": "uint256",
          "name": "oldNonce",
          "type": "uint256"
        },
        {
          "indexed": false,
          "internalType": "uint256",
          "name": "newNonce",
          "type": "uint256"
        }
      ],
      "name": "NonceIncreased",
      "type": "event"
    },
    {
      "anonymous": false,
      "inputs": [
        {
          "indexed": true,
          "internalType": "address",
          "name": "recipient",
          "type": "address"
        },
        {
          "indexed": true,
          "internalType": "address",
          "name": "attester",
          "type": "address"
        },
        {
          "indexed": false,
          "internalType": "bytes32",
          "name": "uid",
          "type": "bytes32"
        },
        {
          "indexed": true,
          "internalType": "bytes32",
          "name": "schemaUID",
          "type": "bytes32"
        }
      ],
      "name": "Revoked",
      "type": "event"
    },
    {
      "anonymous": false,
      "inputs": [
        {
          "indexed": true,
          "internalType": "address",
          "name": "revoker",
          "type": "address"
        },
        {
          "indexed": true,
          "internalType": "bytes32",
          "name": "data",
          "type": "bytes32"
        },
        {
          "indexed": true,
          "internalType": "uint64",
          "name": "timestamp",
          "type": "uint64"
        }
      ],
      "name": "RevokedOffchain",
      "type": "event"
    },
    {
      "anonymous": false,
      "inputs": [
        {
          "indexed": true,
          "internalType": "bytes32",
          "name": "data",
          "type": "bytes32"
        },
        {
          "indexed": true,
          "internalType": "uint64",
          "name": "timestamp",
          "type": "uint64"
        }
      ],
      "name": "Timestamped",
      "type": "event"
    },
    {
      "inputs": [
        {
          "components": [
            {
              "internalType": "bytes32",
              "name": "schema",
              "type": "bytes32"
            },
            {
              "components": [
                {
                  "internalType": "address",
                  "name": "recipient",
                  "type": "address"
                },
                {
                  "internalType": "uint64",
                  "name": "expirationTime",
                  "type": "uint64"
                },
                {
                  "internalType": "bool",
                  "name": "revocable",
                  "type": "bool"
                },
                {
                  "internalType": "bytes32",
                  "name": "refUID",
                  "type": "bytes32"
                },
                {
                  "internalType": "bytes",
                  "name": "data",
                  "type": "bytes"
                },
                {
                  "internalType": "uint256",
                  "name": "value",
                  "type": "uint256"
                }
              ],
              "internalType": "struct AttestationRequestData",
              "name": "data",
              "type": "tuple"
            }
          ],
          "internalType": "struct AttestationRequest",
          "name": "request",
          "type": "tuple"
        }
      ],
      "name": "attest",
      "outputs": [
        {
          "internalType": "bytes32",
          "name": "",
          "type": "bytes32"
        }
      ],
      "stateMutability": "payable",
      "type": "function"
    },
    {
      "inputs": [
        {
          "components": [
            {
              "internalType": "bytes32",
              "name": "schema",
              "type": "bytes32"
            },
            {
              "components": [
                {
                  "internalType": "address",
                  "name": "recipient",
                  "type": "address"
                },
                {
                  "internalType": "uint64",
                  "name": "expirationTime",
                  "type": "uint64"
                },
                {
                  "internalType": "bool",
                  "name": "revocable",
                  "type": "bool"
                },
                {
                  "internalType": "bytes32",
                  "name": "refUID",
                  "type": "bytes32"
                },
                {
                  "internalType": "bytes",
                  "name": "data",
                  "type": "bytes"
                },
                {
                  "internalType": "uint256",
                  "name": "value",
                  "type": "uint256"
                }
              ],
              "internalType": "struct AttestationRequestData",
              "name": "data",
              "type": "tuple"
            },
            {
              "components": [
                {
                  "internalType": "uint8",
                  "name": "v",
                  "type": "uint8"
                },
                {
                  "internalType": "bytes32",
                  "name": "r",
                  "type": "bytes32"
                },
                {
                  "internalType": "bytes32",
                  "name": "s",
                  "type": "bytes32"
                }
              ],
              "internalType": "struct Signature",
              "name": "signature",
              "type": "tuple"
            },
            {
              "internalType": "address",
              "name": "attester",
              "type": "address"
            },
            {
              "internalType": "uint64",
              "name": "deadline",
              "type": "uint64"
            }
          ],
          "internalType": "struct DelegatedAttestationRequest",
          "name": "delegatedRequest",
          "type": "tuple"
        }
      ],
      "name": "attestByDelegation",
      "outputs": [
        {
          "internalType": "bytes32",
          "name": "",
          "type": "bytes32"
        }
      ],
      "stateMutability": "payable",
      "type": "function"
    },
    {
      "inputs": [],
      "name": "eip712Domain",
      "outputs": [
        {
          "internalType": "bytes1",
          "name": "fields",
          "type": "bytes1"
        },
        {
          "internalType": "string",
          "name": "name",
          "type": "string"
        },
        {
          "internalType": "string",
          "name": "version",
          "type": "string"
        },
        {
          "internalType": "uint256",
          "name": "chainId",
          "type": "uint256"
        },
        {
          "internalType": "address",
          "name": "verifyingContract",
          "type": "address"
        },
        {
          "internalType": "bytes32",
          "name": "salt",
          "type": "bytes32"
        },
        {
          "internalType": "uint256[]",
          "name": "extensions",
          "type": "uint256[]"
        }
      ],
      "stateMutability": "view",
      "type": "function"
    },
    {
      "inputs": [],
      "name": "getAttestTypeHash",
      "outputs": [
        {
          "internalType": "bytes32",
          "name": "",
          "type": "bytes32"
        }
      ],
      "stateMutability": "pure",
      "type": "function"
    },
    {
      "inputs": [
        {
          "internalType": "bytes32",
          "name": "uid",
          "type": "bytes32"
        }
      ],
      "name": "getAttestation",
      "outputs": [
        {
          "components": [
            {
              "internalType": "bytes32",
              "name": "uid",
              "type": "bytes32"
            },
            {
              "internalType": "bytes32",
              "name": "schema",
              "type": "bytes32"
            },
            {
              "internalType": "uint64",
              "name": "time",
              "type": "uint64"
            },
            {
              "internalType": "uint64",
              "name": "expirationTime",
              "type": "uint64"
            },
            {
              "internalType": "uint64",
              "name": "revocationTime",
              "type": "uint64"
            },
            {
              "internalType": "bytes32",
              "name": "refUID",
              "type": "bytes32"
            },
            {
              "internalType": "address",
              "name": "recipient",
              "type": "address"
            },
            {
              "internalType": "address",
              "name": "attester",
              "type": "address"
            },
            {
              "internalType": "bool",
              "name": "revocable",
              "type": "bool"
            },
            {
              "internalType": "bytes",
              "name": "data",
              "type": "bytes"
            }
          ],
          "internalType": "struct Attestation",
          "name": "",
          "type": "tuple"
        }
      ],
      "stateMutability": "view",
      "type": "function"
    },
    {
      "inputs": [],
      "name": "getDomainSeparator",
      "outputs": [
        {
          "internalType": "bytes32",
          "name": "",
          "type": "bytes32"
        }
      ],
      "stateMutability": "view",
      "type": "function"
    },
    {
      "inputs": [],
      "name": "getName",
      "outputs": [
        {
          "internalType": "string",
          "name": "",
          "type": "string"
        }
      ],
      "stateMutability": "view",
      "type": "function"
    },
    {
      "inputs": [
        {
          "internalType": "address",
          "name": "account",
          "type": "address"
        }
      ],
      "name": "getNonce",
      "outputs": [
        {
          "internalType": "uint256",
          "name": "",
          "type": "uint256"
        }
      ],
      "stateMutability": "view",
      "type": "function"
    },
    {
      "inputs": [
        {
          "internalType": "address",
          "name": "revoker",
          "type": "address"
        },
        {
          "internalType": "bytes32",
          "name": "data",
          "type": "bytes32"
        }
      ],
      "name": "getRevokeOffchain",
      "outputs": [
        {
          "internalType": "uint64",
          "name": "",
          "type": "uint64"
        }
      ],
      "stateMutability": "view",
      "type": "function"
    },
    {
      "inputs": [],
      "name": "getRevokeTypeHash",
      "outputs": [
        {
          "internalType": "bytes32",
          "name": "",
          "type": "bytes32"
        }
      ],
      "stateMutability": "pure",
      "type": "function"
    },
    {
      "inputs": [],
      "name": "getSchemaRegistry",
      "outputs": [
        {
          "internalType": "contract ISchemaRegistry",
          "name": "",
          "type": "address"
        }
      ],
      "stateMutability": "view",
      "type": "function"
    },
    {
      "inputs": [
        {
          "internalType": "bytes32",
          "name": "data",
          "type": "bytes32"
        }
      ],
      "name": "getTimestamp",
      "outputs": [
        {
          "internalType": "uint64",
          "name": "",
          "type": "uint64"
        }
      ],
      "stateMutability": "view",
      "type": "function"
    },
    {
      "inputs": [
        {
          "internalType": "uint256",
          "name": "newNonce",
          "type": "uint256"
        }
      ],
      "name": "increaseNonce",
      "outputs": [],
      "stateMutability": "nonpayable",
      "type": "function"
    },
    {
      "inputs": [
        {
          "internalType": "bytes32",
          "name": "uid",
          "type": "bytes32"
        }
      ],
      "name": "isAttestationValid",
      "outputs": [
        {
          "internalType": "bool",
          "name": "",
          "type": "bool"
        }
      ],
      "stateMutability": "view",
      "type": "function"
    },
    {
      "inputs": [
        {
          "components": [
            {
              "internalType": "bytes32",
              "name": "schema",
              "type": "bytes32"
            },
            {
              "components": [
                {
                  "internalType": "address",
                  "name": "recipient",
                  "type": "address"
                },
                {
                  "internalType": "uint64",
                  "name": "expirationTime",
                  "type": "uint64"
                },
                {
                  "internalType": "bool",
                  "name": "revocable",
                  "type": "bool"
                },
                {
                  "internalType": "bytes32",
                  "name": "refUID",
                  "type": "bytes32"
                },
                {
                  "internalType": "bytes",
                  "name": "data",
                  "type": "bytes"
                },
                {
                  "internalType": "uint256",
                  "name": "value",
                  "type": "uint256"
                }
              ],
              "internalType": "struct AttestationRequestData[]",
              "name": "data",
              "type": "tuple[]"
            }
          ],
          "internalType": "struct MultiAttestationRequest[]",
          "name": "multiRequests",
          "type": "tuple[]"
        }
      ],
      "name": "multiAttest",
      "outputs": [
        {
          "internalType": "bytes32[]",
          "name": "",
          "type": "bytes32[]"
        }
      ],
      "stateMutability": "payable",
      "type": "function"
    },
    {
      "inputs": [
        {
          "components": [
            {
              "internalType": "bytes32",
              "name": "schema",
              "type": "bytes32"
            },
            {
              "components": [
                {
                  "internalType": "address",
                  "name": "recipient",
                  "type": "address"
                },
                {
                  "internalType": "uint64",
                  "name": "expirationTime",
                  "type": "uint64"
                },
                {
                  "internalType": "bool",
                  "name": "revocable",
                  "type": "bool"
                },
                {
                  "internalType": "bytes32",
                  "name": "refUID",
                  "type": "bytes32"
                },
                {
                  "internalType": "bytes",
                  "name": "data",
                  "type": "bytes"
                },
                {
                  "internalType": "uint256",
                  "name": "value",
                  "type": "uint256"
                }
              ],
              "internalType": "struct AttestationRequestData[]",
              "name": "data",
              "type": "tuple[]"
            },
            {
              "components": [
                {
                  "internalType": "uint8",
                  "name": "v",
                  "type": "uint8"
                },
                {
                  "internalType": "bytes32",
                  "name": "r",
                  "type": "bytes32"
                },
                {
                  "internalType": "bytes32",
                  "name": "s",
                  "type": "bytes32"
                }
              ],
              "internalType": "struct Signature[]",
              "name": "signatures",
              "type": "tuple[]"
            },
            {
              "internalType": "address",
              "name": "attester",
              "type": "address"
            },
            {
              "internalType": "uint64",
              "name": "deadline",
              "type": "uint64"
            }
          ],
          "internalType": "struct MultiDelegatedAttestationRequest[]",
          "name": "multiDelegatedRequests",
          "type": "tuple[]"
        }
      ],
      "name": "multiAttestByDelegation",
      "outputs": [
        {
          "internalType": "bytes32[]",
          "name": "",
          "type": "bytes32[]"
        }
      ],
      "stateMutability": "payable",
      "type": "function"
    },
    {
      "inputs": [
        {
          "components": [
            {
              "internalType": "bytes32",
              "name": "schema",
              "type": "bytes32"
            },
            {
              "components": [
                {
                  "internalType": "bytes32",
                  "name": "uid",
                  "type": "bytes32"
                },
                {
                  "internalType": "uint256",
                  "name": "value",
                  "type": "uint256"
                }
              ],
              "internalType": "struct RevocationRequestData[]",
              "name": "data",
              "type": "tuple[]"
            }
          ],
          "internalType": "struct MultiRevocationRequest[]",
          "name": "multiRequests",
          "type": "tuple[]"
        }
      ],
      "name": "multiRevoke",
      "outputs": [],
      "stateMutability": "payable",
      "type": "function"
    },
    {
      "inputs": [
        {
          "components": [
            {
              "internalType": "bytes32",
              "name": "schema",
              "type": "bytes32"
            },
            {
              "components": [
                {
                  "internalType": "bytes32",
                  "name": "uid",
                  "type": "bytes32"
                },
                {
                  "internalType": "uint256",
                  "name": "value",
                  "type": "uint256"
                }
              ],
              "internalType": "struct RevocationRequestData[]",
              "name": "data",
              "type": "tuple[]"
            },
            {
              "components": [
                {
                  "internalType": "uint8",
                  "name": "v",
                  "type": "uint8"
                },
                {
                  "internalType": "bytes32",
                  "name": "r",
                  "type": "bytes32"
                },
                {
                  "internalType": "bytes32",
                  "name": "s",
                  "type": "bytes32"
                }
              ],
              "internalType": "struct Signature[]",
              "name": "signatures",
              "type": "tuple[]"
            },
            {
              "internalType": "address",
              "name": "revoker",
              "type": "address"
            },
            {
              "internalType": "uint64",
              "name": "deadline",
              "type": "uint64"
            }
          ],
          "internalType": "struct MultiDelegatedRevocationRequest[]",
          "name": "multiDelegatedRequests",
          "type": "tuple[]"
        }
      ],
      "name": "multiRevokeByDelegation",
      "outputs": [],
      "stateMutability": "payable",
      "type": "function"
    },
    {
      "inputs": [
        {
          "internalType": "bytes32[]",
          "name": "data",
          "type": "bytes32[]"
        }
      ],
      "name": "multiRevokeOffchain",
      "outputs": [
        {
          "internalType": "uint64",
          "name": "",
          "type": "uint64"
        }
      ],
      "stateMutability": "nonpayable",
      "type": "function"
    },
    {
      "inputs": [
        {
          "internalType": "bytes32[]",
          "name": "data",
          "type": "bytes32[]"
        }
      ],
      "name": "multiTimestamp",
      "outputs": [
        {
          "internalType": "uint64",
          "name": "",
          "type": "uint64"
        }
      ],
      "stateMutability": "nonpayable",
      "type": "function"
    },
    {
      "inputs": [
        {
          "components": [
            {
              "internalType": "bytes32",
              "name": "schema",
              "type": "bytes32"
            },
            {
              "components": [
                {
                  "internalType": "bytes32",
                  "name": "uid",
                  "type": "bytes32"
                },
                {
                  "internalType": "uint256",
                  "name": "value",
                  "type": "uint256"
                }
              ],
              "internalType": "struct RevocationRequestData",
              "name": "data",
              "type": "tuple"
            }
          ],
          "internalType": "struct RevocationRequest",
          "name": "request",
          "type": "tuple"
        }
      ],
      "name": "revoke",
      "outputs": [],
      "stateMutability": "payable",
      "type": "function"
    },
    {
      "inputs": [
        {
          "components": [
            {
              "internalType": "bytes32",
              "name": "schema",
              "type": "bytes32"
            },
            {
              "components": [
                {
                  "internalType": "bytes32",
                  "name": "uid",
                  "type": "bytes32"
                },
                {
                  "internalType": "uint256",
                  "name": "value",
                  "type": "uint256"
                }
              ],
              "internalType": "struct RevocationRequestData",
              "name": "data",
              "type": "tuple"
            },
            {
              "components": [
                {
                  "internalType": "uint8",
                  "name": "v",
                  "type": "uint8"
                },
                {
                  "internalType": "bytes32",
                  "name": "r",
                  "type": "bytes32"
                },
                {
                  "internalType": "bytes32",
                  "name": "s",
                  "type": "bytes32"
                }
              ],
              "internalType": "struct Signature",
              "name": "signature",
              "type": "tuple"
            },
            {
              "internalType": "address",
              "name": "revoker",
              "type": "address"
            },
            {
              "internalType": "uint64",
              "name": "deadline",
              "type": "uint64"
            }
          ],
          "internalType": "struct DelegatedRevocationRequest",
          "name": "delegatedRequest",
          "type": "tuple"
        }
      ],
      "name": "revokeByDelegation",
      "outputs": [],
      "stateMutability": "payable",
      "type": "function"
    },
    {
      "inputs": [
        {
          "internalType": "bytes32",
          "name": "data",
          "type": "bytes32"
        }
      ],
      "name": "revokeOffchain",
      "outputs": [
        {
          "internalType": "uint64",
          "name": "",
          "type": "uint64"
        }
      ],
      "stateMutability": "nonpayable",
      "type": "function"
    },
    {
      "inputs": [
        {
          "internalType": "bytes32",
          "name": "data",
          "type": "bytes32"
        }
      ],
      "name": "timestamp",
      "outputs": [
        {
          "internalType": "uint64",
          "name": "",
          "type": "uint64"
        }
      ],
      "stateMutability": "nonpayable",
      "type": "function"
    },
    {
      "inputs": [],
      "name": "version",
      "outputs": [
        {
          "internalType": "string",
          "name": "",
          "type": "string"
        }
      ],
      "stateMutability": "view",
      "type": "function"
    }
  ],
  "bytecode": "0x6101e0604052348015610010575f5ffd5b50604051613f51380380613f5183398101604081905261002f916101ee565b60408051808201825260038082526245415360e81b602080840191909152835180850190945260058452640312e332e360dc1b90840152600160805260a0525f60c081905290919082908290610086908390610176565b61018052610095816001610176565b6101a0528151602080840191909120610140528151908201206101605246610100526101246101405161016051604080517f8b73c3c69bb8fe3d512ecc4cf759cc79239f7b179b0ffacaa9a75d522b39400f60208201529081019290925260608201524660808201523060a08201525f9060c00160405160208183030381529060405280519060200120905090565b60e05250503061012052600261013a83826102b3565b5050506001600160a01b038116610164576040516311a1e69760e01b815260040160405180910390fd5b6001600160a01b03166101c0526103c5565b5f6020835110156101915761018a836101a8565b90506101a2565b8161019c84826102b3565b5060ff90505b92915050565b5f5f829050601f815111156101db578260405163305a27a960e01b81526004016101d2919061036d565b60405180910390fd5b80516101e6826103a2565b179392505050565b5f602082840312156101fe575f5ffd5b81516001600160a01b0381168114610214575f5ffd5b9392505050565b634e487b7160e01b5f52604160045260245ffd5b600181811c9082168061024357607f821691505b60208210810361026157634e487b7160e01b5f52602260045260245ffd5b50919050565b601f8211156102ae57805f5260205f20601f840160051c8101602085101561028c5750805b601f840160051c820191505b818110156102ab575f8155600101610298565b50505b505050565b81516001600160401b038111156102cc576102cc61021b565b6102e0816102da845461022f565b84610267565b6020601f821160018114610312575f83156102fb5750848201515b5f19600385901b1c1916600184901b1784556102ab565b5f84815260208120601f198516915b828110156103415787850151825560209485019460019092019101610321565b508482101561035e57868401515f19600387901b60f8161c191681555b50505050600190811b01905550565b602081525f82518060208401528060208501604085015e5f604082850101526040601f19601f83011684010191505092915050565b80516020808301519190811015610261575f1960209190910360031b1b16919050565b60805160a05160c05160e05161010051610120516101405161016051610180516101a0516101c051613b0561044c5f395f81816104c3015281816112b8015261199a01525f61209201525f61206601525f61219101525f61216901525f6120c401525f6120ee01525f61211801525f610aeb01525f610ac201525f610a990152613b055ff3fe608060405260043610610161575f3560e01c806384b0196e116100cd578063cf190f3411610087578063e71ff36511610062578063e71ff36514610477578063ed24911d14610496578063f10b5cc8146104aa578063f17325e7146104ed575f5ffd5b8063cf190f34146103e7578063d45c443514610406578063e30bb5631461043a575f5ffd5b806384b0196e146102f25780639541152514610319578063a3112a641461032c578063a6d4dbc714610358578063b469318d1461036b578063b83010d3146103b5575f5ffd5b806344adc90e1161011e57806344adc90e1461025a578063469262671461027a5780634cb7e9e51461028d5780634d003070146102a057806354fd4d50146102bf57806379f7573a146102d3575f5ffd5b80630eabf6601461016557806312b11a171461017a57806313893f61146101bb57806317d7de7c146101f25780632d0335ab146102135780633c04271514610247575b5f5ffd5b610178610173366004612cc7565b610500565b005b348015610185575f5ffd5b507ffeb2925a02bae3dae48d424a0437a2b6ac939aa9230ddc55a1a76f065d9880765b6040519081526020015b60405180910390f35b3480156101c6575f5ffd5b506101da6101d5366004612cc7565b61064c565b6040516001600160401b0390911681526020016101b2565b3480156101fd575f5ffd5b50610206610690565b6040516101b29190612d33565b34801561021e575f5ffd5b506101a861022d366004612d69565b6001600160a01b03165f9081526003602052604090205490565b6101a8610255366004612d84565b610720565b61026d610268366004612cc7565b6107ff565b6040516101b29190612dba565b610178610288366004612dfc565b610943565b61017861029b366004612cc7565b6109c4565b3480156102ab575f5ffd5b506101da6102ba366004612e15565b610a86565b3480156102ca575f5ffd5b50610206610a92565b3480156102de575f5ffd5b506101786102ed366004612e15565b610b35565b3480156102fd575f5ffd5b50610306610bb3565b6040516101b29796959493929190612e66565b61026d610327366004612cc7565b610bf5565b348015610337575f5ffd5b5061034b610346366004612e15565b610e1b565b6040516101b29190612fa2565b610178610366366004612fb4565b610f5e565b348015610376575f5ffd5b506101da610385366004612fc6565b6001600160a01b03919091165f90815260066020908152604080832093835292905220546001600160401b031690565b3480156103c0575f5ffd5b507fb5d556f07587ec0f08cf386545cc4362c702a001650c2058002615ee5c9d1e756101a8565b3480156103f2575f5ffd5b506101da610401366004612e15565b611000565b348015610411575f5ffd5b506101da610420366004612e15565b5f908152600560205260409020546001600160401b031690565b348015610445575f5ffd5b50610467610454366004612e15565b5f90815260046020526040902054151590565b60405190151581526020016101b2565b348015610482575f5ffd5b506101da610491366004612cc7565b61100d565b3480156104a1575f5ffd5b506101a8611044565b3480156104b5575f5ffd5b506040516001600160a01b037f00000000000000000000000000000000000000000000000000000000000000001681526020016101b2565b6101a86104fb366004612ff0565b611052565b34815f5b81811015610645575f19820181145f86868481811061052557610525613026565b9050602002810190610537919061303a565b61054090613265565b602081015180519192509080158061055d57508260400151518114155b1561057b5760405163251f56a160e21b815260040160405180910390fd5b5f5b8181101561060f576106076040518060a00160405280865f015181526020018584815181106105ae576105ae613026565b60200260200101518152602001866040015184815181106105d1576105d1613026565b6020026020010151815260200186606001516001600160a01b0316815260200186608001516001600160401b03168152506110ee565b60010161057d565b50610624835f01518385606001518a88611296565b61062e9088613372565b96505050505061063e8160010190565b9050610504565b5050505050565b5f4282825b818110156106845761067c3387878481811061066f5761066f613026565b905060200201358561170d565b600101610651565b50909150505b92915050565b60606002805461069f90613385565b80601f01602080910402602001604051908101604052809291908181526020018280546106cb90613385565b80156107165780601f106106ed57610100808354040283529160200191610716565b820191905f5260205f20905b8154815290600101906020018083116106f957829003601f168201915b5050505050905090565b5f61073261072d836134bc565b6117be565b6040805160018082528183019092525f91816020015b6040805160c0810182525f80825260208083018290529282018190526060808301829052608083015260a082015282525f199092019101816107485790505090506107966020840184613533565b61079f90613547565b815f815181106107b1576107b1613026565b60209081029190910101526107da8335826107d260c0870160a08801612d69565b346001611911565b602001515f815181106107ef576107ef613026565b6020026020010151915050919050565b6060815f816001600160401b0381111561081b5761081b613058565b60405190808252806020026020018201604052801561084e57816020015b60608152602001906001900390816108395790505b5090505f34815b8481101561092d575f19850181143689898481811061087657610876613026565b90506020028101906108889190613552565b90506108976020820182613566565b90505f036108b85760405163251f56a160e21b815260040160405180910390fd5b5f6108dc82356108cb6020850185613566565b6108d4916135ab565b338887611911565b80519091506108eb9086613372565b9450806020015187858151811061090457610904613026565b6020026020010181905250806020015151860195505050506109268160010190565b9050610855565b506109388383611e5d565b979650505050505050565b6040805160018082528183019092525f91816020015b604080518082019091525f80825260208201528152602001906001900390816109595790505090506109933683900383016020840161360d565b815f815181106109a5576109a5613026565b60209081029190910101526109bf82358233346001611296565b505050565b34815f5b81811015610645575f1982018114368686848181106109e9576109e9613026565b90506020028101906109fb9190613552565b9050610a678135610a0f6020840184613627565b808060200260200160405190810160405280939291908181526020015f905b82821015610a5a57610a4b6040830286013681900381019061360d565b81526020019060010190610a2e565b5050505050338886611296565b610a719086613372565b94505050610a7f8160010190565b90506109c8565b5f4261068a8382611f42565b6060610abd7f0000000000000000000000000000000000000000000000000000000000000000611fd0565b610ae67f0000000000000000000000000000000000000000000000000000000000000000611fd0565b610b0f7f0000000000000000000000000000000000000000000000000000000000000000611fd0565b604051602001610b2193929190613683565b604051602081830303815290604052905090565b335f90815260036020526040902054808211610b6457604051633ab3447f60e11b815260040160405180910390fd5b335f9081526003602090815260409182902084905581518381529081018490527f57b09af877df9068fd60a69d7b21f5576b8b38955812d6ae4ac52942f1e38fb7910160405180910390a15050565b5f6060805f5f5f6060610bc461205f565b610bcc61208b565b604080515f80825260208201909252600f60f81b9b939a50919850469750309650945092509050565b6060815f816001600160401b03811115610c1157610c11613058565b604051908082528060200260200182016040528015610c4457816020015b6060815260200190600190039081610c2f5790505b5090505f34815b8481101561092d575f198501811436898984818110610c6c57610c6c613026565b9050602002810190610c7e919061303a565b9050365f610c8f6020840184613566565b909250905080801580610cb05750610caa60408501856136b8565b90508114155b15610cce5760405163251f56a160e21b815260040160405180910390fd5b5f5b81811015610d9f57610d976040518060a00160405280875f01358152602001868685818110610d0157610d01613026565b9050602002810190610d139190613533565b610d1c90613547565b8152602001610d2e60408901896136b8565b85818110610d3e57610d3e613026565b905060600201803603810190610d5491906136fc565b8152602001610d696080890160608a01612d69565b6001600160a01b03168152602001610d8760a0890160808a01613716565b6001600160401b031690526117be565b600101610cd0565b505f610dc78535610db085876135ab565b610dc06080890160608a01612d69565b8b8a611911565b8051909150610dd69089613372565b975080602001518a8881518110610def57610def613026565b602002602001018190525080602001515189019850505050505050610e148160010190565b9050610c4b565b610e23612c07565b5f828152600460208181526040928390208351610140810185528154815260018201549281019290925260028101546001600160401b0380821695840195909552600160401b810485166060840152600160801b90049093166080820152600383015460a0820152908201546001600160a01b0390811660c0830152600583015490811660e0830152600160a01b900460ff16151561010082015260068201805491929161012084019190610ed790613385565b80601f0160208091040260200160405190810160405280929190818152602001828054610f0390613385565b8015610f4e5780601f10610f2557610100808354040283529160200191610f4e565b820191905f5260205f20905b815481529060010190602001808311610f3157829003601f168201915b5050505050815250509050919050565b610f75610f703683900383018361372f565b6110ee565b6040805160018082528183019092525f91816020015b604080518082019091525f8082526020820152815260200190600190039081610f8b579050509050610fc53683900383016020840161360d565b815f81518110610fd757610fd7613026565b60209081029190910101526109bf823582610ff860e0860160c08701612d69565b346001611296565b5f4261068a33848361170d565b5f4282825b818110156106845761103c86868381811061102f5761102f613026565b9050602002013584611f42565b600101611012565b5f61104d6120b8565b905090565b6040805160018082528183019092525f91829190816020015b6040805160c0810182525f80825260208083018290529282018190526060808301829052608083015260a082015282525f1990920191018161106b5790505090506110b96020840184613533565b6110c290613547565b815f815181106110d4576110d4613026565b60209081029190910101526107da83358233346001611911565b60808101516001600160401b03161580159061111f5750426001600160401b031681608001516001600160401b0316105b1561113d57604051631ab7da6b60e01b815260040160405180910390fd5b602080820151604080840151606085015185518451858701516001600160a01b0384165f90815260039098529487208054969794969495611216957fb5d556f07587ec0f08cf386545cc4362c702a001650c2058002615ee5c9d1e7595949392886111a78361379d565b909155506080808c01516040805160208101999099526001600160a01b039097169688019690965260608701949094529285019190915260a084015260c08301526001600160401b031660e0820152610100015b604051602081830303815290604052805190602001206121e1565b905061127384606001518284602001518560400151865f015160405160200161125f93929190928352602083019190915260f81b6001600160f81b031916604082015260410190565b60405160208183030381529060405261220d565b61129057604051638baa579f60e01b815260040160405180910390fd5b50505050565b6040516351753e3760e11b8152600481018690525f9081906001600160a01b037f0000000000000000000000000000000000000000000000000000000000000000169063a2ea7c6e906024015f60405180830381865afa1580156112fc573d5f5f3e3d5ffd5b505050506040513d5f823e601f3d908101601f1916820160405261132391908101906137b5565b805190915061134557604051635f9bd90760e11b815260040160405180910390fd5b85515f816001600160401b0381111561136057611360613058565b60405190808252806020026020018201604052801561139957816020015b611386612c07565b81526020019060019003908161137e5790505b5090505f826001600160401b038111156113b5576113b5613058565b6040519080825280602002602001820160405280156113de578160200160208202803683370190505b5090505f5b838110156116ef575f8a82815181106113fe576113fe613026565b60209081029190910181015180515f9081526004909252604090912080549192509061143d5760405163c5723b5160e01b815260040160405180910390fd5b8c81600101541461146157604051635f9bd90760e11b815260040160405180910390fd5b60058101546001600160a01b038c811691161461149157604051634ca8886760e01b815260040160405180910390fd5b6005810154600160a01b900460ff166114bd5760405163157bd4c360e01b815260040160405180910390fd5b6002810154600160801b90046001600160401b0316156114f05760405163905e710760e01b815260040160405180910390fd5b4260028201805467ffffffffffffffff60801b198116600160801b6001600160401b03948516810291821793849055604080516101408101825287548152600188015460208201529386169286169290921791830191909152600160401b8304841660608301529091049091166080820152600382015460a082015260048201546001600160a01b0390811660c0830152600583015490811660e0830152600160a01b900460ff16151561010082015260068201805483916101208401916115b790613385565b80601f01602080910402602001604051908101604052809291908181526020018280546115e390613385565b801561162e5780601f106116055761010080835404028352916020019161162e565b820191905f5260205f20905b81548152906001019060200180831161161157829003601f168201915b50505050508152505085848151811061164957611649613026565b6020026020010181905250816020015184848151811061166b5761166b613026565b6020026020010181815250508c8b6001600160a01b031686858151811061169457611694613026565b602002602001015160c001516001600160a01b03167ff930a6e2523c9cc298691873087a740550b8fc85a0680830414c148ed927f615855f01516040516116dd91815260200190565b60405180910390a450506001016113e3565b506116ff84838360018b8b612280565b9a9950505050505050505050565b6001600160a01b0383165f90815260066020908152604080832085845291829052909120546001600160401b0316156117595760405163ec9d6eeb60e01b815260040160405180910390fd5b5f83815260208290526040808220805467ffffffffffffffff19166001600160401b0386169081179091559051909185916001600160a01b038816917f92a1f7a41a7c585a8b09e25b195e225b1d43248daca46b0faf9e0792777a222991a450505050565b60808101516001600160401b0316158015906117ef5750426001600160401b031681608001516001600160401b0316105b1561180d57604051631ab7da6b60e01b815260040160405180910390fd5b6020808201516040808401516060808601518651855186880151868801519488015160808901518051908b012060a08a01516001600160a01b0387165f9081526003909c52988b2080549a9b989a9899611216997ffeb2925a02bae3dae48d424a0437a2b6ac939aa9230ddc55a1a76f065d988076999493928c6118908361379d565b919050558e608001516040516020016111fb9b9a999897969594939291909a8b526001600160a01b03998a1660208c015260408b01989098529590971660608901526001600160401b03938416608089015291151560a088015260c087015260e0860152610100850193909352610120840152166101408201526101600190565b604080518082019091525f8152606060208201528451604080518082019091525f815260606020820152816001600160401b0381111561195357611953613058565b60405190808252806020026020018201604052801561197c578160200160208202803683370190505b5060208201526040516351753e3760e11b8152600481018990525f907f00000000000000000000000000000000000000000000000000000000000000006001600160a01b03169063a2ea7c6e906024015f60405180830381865afa1580156119e6573d5f5f3e3d5ffd5b505050506040513d5f823e601f3d908101601f19168201604052611a0d91908101906137b5565b8051909150611a2f57604051635f9bd90760e11b815260040160405180910390fd5b5f836001600160401b03811115611a4857611a48613058565b604051908082528060200260200182016040528015611a8157816020015b611a6e612c07565b815260200190600190039081611a665790505b5090505f846001600160401b03811115611a9d57611a9d613058565b604051908082528060200260200182016040528015611ac6578160200160208202803683370190505b5090505f5b85811015611e3d575f8b8281518110611ae657611ae6613026565b602002602001015190505f6001600160401b031681602001516001600160401b031614158015611b2c5750426001600160401b031681602001516001600160401b031611155b15611b4a576040516308e8b93760e01b815260040160405180910390fd5b8460400151158015611b5d575080604001515b15611b7b5760405163157bd4c360e01b815260040160405180910390fd5b5f6040518061014001604052805f5f1b81526020018f8152602001611b9d4290565b6001600160401b0316815260200183602001516001600160401b031681526020015f6001600160401b0316815260200183606001518152602001835f01516001600160a01b031681526020018d6001600160a01b03168152602001836040015115158152602001836080015181525090505f5f5f90505b611c1e8382612581565b5f8181526004602052604090205490925015611c3c57600101611c14565b8183525f828152600460208181526040928390208651815590860151600182015591850151600283018054606088015160808901516001600160401b03908116600160801b0267ffffffffffffffff60801b19928216600160401b026fffffffffffffffffffffffffffffffff199094169190951617919091171691909117905560a0850151600383015560c085015190820180546001600160a01b039283166001600160a01b031990911617905560e08501516005830180546101008801511515600160a01b026001600160a81b031990911692909316919091179190911790556101208401518491906006820190611d3690826138d1565b505050606084015115611d735760608401515f90815260046020526040902054611d735760405163c5723b5160e01b815260040160405180910390fd5b82878681518110611d8657611d86613026565b60200260200101819052508360a00151868681518110611da857611da8613026565b6020026020010181815250508189602001518681518110611dcb57611dcb613026565b6020026020010181815250508f8e6001600160a01b0316855f01516001600160a01b03167f8bf46bf4cfd674fa735a3d63ec1c9ad4153f033c290341f3a588b75685141b3585604051611e2091815260200190565b60405180910390a450505050611e368160010190565b9050611acb565b50611e4c8383835f8c8c612280565b845250919998505050505050505050565b60605f826001600160401b03811115611e7857611e78613058565b604051908082528060200260200182016040528015611ea1578160200160208202803683370190505b5084519091505f90815b81811015611f37575f878281518110611ec657611ec6613026565b602090810291909101015180519091505f5b81811015611f2357828181518110611ef257611ef2613026565b6020026020010151878781518110611f0c57611f0c613026565b602090810291909101015260019586019501611ed8565b505050611f308160010190565b9050611eab565b509195945050505050565b5f828152600560205260409020546001600160401b031615611f77576040516317133ca360e11b815260040160405180910390fd5b5f82815260056020526040808220805467ffffffffffffffff19166001600160401b0385169081179091559051909184917f5aafceeb1c7ad58e4a84898bdee37c02c0fc46e7d24e6b60e8209449f183459f9190a35050565b60605f611fdc836125df565b60010190505f816001600160401b03811115611ffa57611ffa613058565b6040519080825280601f01601f191660200182016040528015612024576020820181803683370190505b5090508181016020015b5f19016f181899199a1a9b1b9c1cb0b131b232b360811b600a86061a8153600a850494508461202e57509392505050565b606061104d7f00000000000000000000000000000000000000000000000000000000000000005f6126b6565b606061104d7f000000000000000000000000000000000000000000000000000000000000000060016126b6565b5f306001600160a01b037f00000000000000000000000000000000000000000000000000000000000000001614801561211057507f000000000000000000000000000000000000000000000000000000000000000046145b1561213a57507f000000000000000000000000000000000000000000000000000000000000000090565b61104d604080517f8b73c3c69bb8fe3d512ecc4cf759cc79239f7b179b0ffacaa9a75d522b39400f60208201527f0000000000000000000000000000000000000000000000000000000000000000918101919091527f000000000000000000000000000000000000000000000000000000000000000060608201524660808201523060a08201525f9060c00160405160208183030381529060405280519060200120905090565b5f61068a6121ed6120b8565b8360405161190160f01b8152600281019290925260228201526042902090565b5f836001600160a01b03163b5f0361226b575f5f61222b858561275f565b5090925090505f8160038111156122445761224461398b565b1480156122625750856001600160a01b0316826001600160a01b0316145b92505050612279565b6122768484846127a8565b90505b9392505050565b84515f9060018190036122d5576122cd88885f815181106122a3576122a3613026565b6020026020010151885f815181106122bd576122bd613026565b60200260200101518888886127f9565b915050612577565b60208801516001600160a01b03811661234d575f5b828110156123335787818151811061230457612304613026565b60200260200101515f1461232b57604051631574f9f360e01b815260040160405180910390fd5b6001016122ea565b5083156123435761234385612a2d565b5f92505050612577565b5f5f90505f826001600160a01b031663ce46e0466040518163ffffffff1660e01b8152600401602060405180830381865afa15801561238e573d5f5f3e3d5ffd5b505050506040513d601f19601f820116820180604052508101906123b2919061399f565b90505f5b8481101561243a575f8a82815181106123d1576123d1613026565b60200260200101519050805f036123e85750612432565b8261240657604051631574f9f360e01b815260040160405180910390fd5b888111156124275760405163044044a560e21b815260040160405180910390fd5b978890039792909201915b6001016123b6565b5087156124d4576040516388e5b2d960e01b81526001600160a01b038416906388e5b2d9908490612471908e908e906004016139ba565b60206040518083038185885af115801561248d573d5f5f3e3d5ffd5b50505050506040513d601f19601f820116820180604052508101906124b2919061399f565b6124cf5760405163bf2f3a8b60e01b815260040160405180910390fd5b612562565b6040516348ed85bf60e11b81526001600160a01b038416906391db0b7e908490612504908e908e906004016139ba565b60206040518083038185885af1158015612520573d5f5f3e3d5ffd5b50505050506040513d601f19601f82011682018060405250810190612545919061399f565b6125625760405163e8bee83960e01b815260040160405180910390fd5b85156125715761257187612a2d565b50925050505b9695505050505050565b60208083015160c084015160e0850151604080870151606088015161010089015160a08a01516101208b015194515f996125c199989796918c9101613a30565b60405160208183030381529060405280519060200120905092915050565b5f8072184f03e93ff9f4daa797ed6e38ed64bf6a1f0160401b831061261d5772184f03e93ff9f4daa797ed6e38ed64bf6a1f0160401b830492506040015b6d04ee2d6d415b85acef81000000008310612649576d04ee2d6d415b85acef8100000000830492506020015b662386f26fc10000831061266757662386f26fc10000830492506010015b6305f5e100831061267f576305f5e100830492506008015b612710831061269357612710830492506004015b606483106126a5576064830492506002015b600a831061068a5760010192915050565b606060ff83146126d0576126c983612a40565b905061068a565b8180546126dc90613385565b80601f016020809104026020016040519081016040528092919081815260200182805461270890613385565b80156127535780601f1061272a57610100808354040283529160200191612753565b820191905f5260205f20905b81548152906001019060200180831161273657829003601f168201915b5050505050905061068a565b5f5f5f8351604103612796576020840151604085015160608601515f1a61278888828585612a7d565b9550955095505050506127a1565b505081515f91506002905b9250925092565b805160408051630b135d3f60e11b8082526004820186905260248201929092525f92906020820185604483015e60205f60648401838a5afa9050825f5114601f3d1116811693505050509392505050565b60208601515f906001600160a01b03811661284557851561282d57604051631574f9f360e01b815260040160405180910390fd5b821561283c5761283c84612a2d565b5f915050612577565b85156128ef57806001600160a01b031663ce46e0466040518163ffffffff1660e01b8152600401602060405180830381865afa158015612887573d5f5f3e3d5ffd5b505050506040513d601f19601f820116820180604052508101906128ab919061399f565b6128c857604051631574f9f360e01b815260040160405180910390fd5b838611156128e95760405163044044a560e21b815260040160405180910390fd5b85840393505b84156129865760405163e49617e160e01b81526001600160a01b0382169063e49617e1908890612923908b90600401612fa2565b60206040518083038185885af115801561293f573d5f5f3e3d5ffd5b50505050506040513d601f19601f82011682018060405250810190612964919061399f565b6129815760405163ccf3bb2760e01b815260040160405180910390fd5b612a12565b60405163e60c350560e01b81526001600160a01b0382169063e60c35059088906129b4908b90600401612fa2565b60206040518083038185885af11580156129d0573d5f5f3e3d5ffd5b50505050506040513d601f19601f820116820180604052508101906129f5919061399f565b612a125760405163bd8ba84d60e01b815260040160405180910390fd5b8215612a2157612a2184612a2d565b50939695505050505050565b8015612a3d57612a3d3382612b45565b50565b60605f612a4c83612bc0565b6040805160208082528183019092529192505f91906020820181803683375050509182525060208101929092525090565b5f80807f7fffffffffffffffffffffffffffffff5d576e7357a4501ddfe92f46681b20a0841115612ab657505f91506003905082612b3b565b604080515f808252602082018084528a905260ff891692820192909252606081018790526080810186905260019060a0016020604051602081039080840390855afa158015612b07573d5f5f3e3d5ffd5b5050604051601f1901519150506001600160a01b038116612b3257505f925060019150829050612b3b565b92505f91508190505b9450945094915050565b80471015612b735760405163cf47918160e01b81524760048201526024810182905260440160405180910390fd5b612b8c828260405180602001604052805f815250612be7565b15612b95575050565b3d15612ba757612ba3612bfc565b5050565b60405163d6bda27560e01b815260040160405180910390fd5b5f60ff8216601f81111561068a57604051632cd44ac360e21b815260040160405180910390fd5b5f5f5f83516020850186885af1949350505050565b6040513d5f823e3d81fd5b6040518061014001604052805f81526020015f81526020015f6001600160401b031681526020015f6001600160401b031681526020015f6001600160401b031681526020015f81526020015f6001600160a01b031681526020015f6001600160a01b031681526020015f15158152602001606081525090565b5f5f83601f840112612c90575f5ffd5b5081356001600160401b03811115612ca6575f5ffd5b6020830191508360208260051b8501011115612cc0575f5ffd5b9250929050565b5f5f60208385031215612cd8575f5ffd5b82356001600160401b03811115612ced575f5ffd5b612cf985828601612c80565b90969095509350505050565b5f81518084528060208401602086015e5f602082860101526020601f19601f83011685010191505092915050565b602081525f6122796020830184612d05565b6001600160a01b0381168114612a3d575f5ffd5b8035612d6481612d45565b919050565b5f60208284031215612d79575f5ffd5b813561227981612d45565b5f60208284031215612d94575f5ffd5b81356001600160401b03811115612da9575f5ffd5b820160e08185031215612279575f5ffd5b602080825282518282018190525f918401906040840190835b81811015612df1578351835260209384019390920191600101612dd3565b509095945050505050565b5f6060828403128015612e0d575f5ffd5b509092915050565b5f60208284031215612e25575f5ffd5b5035919050565b5f8151808452602084019350602083015f5b82811015612e5c578151865260209586019590910190600101612e3e565b5093949350505050565b60ff60f81b8816815260e060208201525f612e8460e0830189612d05565b8281036040840152612e968189612d05565b606084018890526001600160a01b038716608085015260a0840186905283810360c085015290506116ff8185612e2c565b80518252602081015160208301525f6040820151612ef060408501826001600160401b03169052565b506060820151612f0b60608501826001600160401b03169052565b506080820151612f2660808501826001600160401b03169052565b5060a082015160a084015260c0820151612f4b60c08501826001600160a01b03169052565b5060e0820151612f6660e08501826001600160a01b03169052565b50610100820151612f7c61010085018215159052565b50610120820151610140610120850152612f9a610140850182612d05565b949350505050565b602081525f6122796020830184612ec7565b5f610100828403128015612e0d575f5ffd5b5f5f60408385031215612fd7575f5ffd5b8235612fe281612d45565b946020939093013593505050565b5f60208284031215613000575f5ffd5b81356001600160401b03811115613015575f5ffd5b820160408185031215612279575f5ffd5b634e487b7160e01b5f52603260045260245ffd5b5f8235609e1983360301811261304e575f5ffd5b9190910192915050565b634e487b7160e01b5f52604160045260245ffd5b60405160a081016001600160401b038111828210171561308e5761308e613058565b60405290565b60405160c081016001600160401b038111828210171561308e5761308e613058565b604051608081016001600160401b038111828210171561308e5761308e613058565b604051601f8201601f191681016001600160401b038111828210171561310057613100613058565b604052919050565b5f6001600160401b0382111561312057613120613058565b5060051b60200190565b5f6040828403121561313a575f5ffd5b604080519081016001600160401b038111828210171561315c5761315c613058565b604052823581526020928301359281019290925250919050565b5f60608284031215613186575f5ffd5b604051606081016001600160401b03811182821017156131a8576131a8613058565b604052905080823560ff811681146131be575f5ffd5b815260208381013590820152604092830135920191909152919050565b5f82601f8301126131ea575f5ffd5b81356131fd6131f882613108565b6130d8565b8082825260208201915060206060840286010192508583111561321e575f5ffd5b602085015b83811015613245576132358782613176565b8352602090920191606001613223565b5095945050505050565b80356001600160401b0381168114612d64575f5ffd5b5f60a08236031215613275575f5ffd5b61327d61306c565b8235815260208301356001600160401b03811115613299575f5ffd5b830136601f8201126132a9575f5ffd5b80356132b76131f882613108565b8082825260208201915060208360061b8501019250368311156132d8575f5ffd5b6020840193505b82841015613304576132f1368561312a565b82526020820191506040840193506132df565b602085015250505060408301356001600160401b03811115613324575f5ffd5b613330368286016131db565b60408301525061334260608401612d59565b60608201526133536080840161324f565b608082015292915050565b634e487b7160e01b5f52601160045260245ffd5b8181038181111561068a5761068a61335e565b600181811c9082168061339957607f821691505b6020821081036133b757634e487b7160e01b5f52602260045260245ffd5b50919050565b8015158114612a3d575f5ffd5b5f6001600160401b038211156133e2576133e2613058565b50601f01601f191660200190565b5f60c08284031215613400575f5ffd5b613408613094565b9050813561341581612d45565b81526134236020830161324f565b60208201526040820135613436816133bd565b60408201526060828101359082015260808201356001600160401b0381111561345d575f5ffd5b8201601f8101841361346d575f5ffd5b803561347b6131f8826133ca565b81815285602083850101111561348f575f5ffd5b816020840160208301375f9181016020019190915260808301525060a09182013591810191909152919050565b5f60e082360312156134cc575f5ffd5b6134d461306c565b8235815260208301356001600160401b038111156134f0575f5ffd5b6134fc368286016133f0565b60208301525061350f3660408501613176565b604082015260a083013561352281612d45565b606082015261335360c0840161324f565b5f823560be1983360301811261304e575f5ffd5b5f61068a36836133f0565b5f8235603e1983360301811261304e575f5ffd5b5f5f8335601e1984360301811261357b575f5ffd5b8301803591506001600160401b03821115613594575f5ffd5b6020019150600581901b3603821315612cc0575f5ffd5b5f6135b86131f884613108565b8381526020810190600585901b8401368111156135d3575f5ffd5b845b81811015612df15780356001600160401b038111156135f2575f5ffd5b6135fe368289016133f0565b855250602093840193016135d5565b5f6040828403121561361d575f5ffd5b612279838361312a565b5f5f8335601e1984360301811261363c575f5ffd5b8301803591506001600160401b03821115613655575f5ffd5b6020019150600681901b3603821315612cc0575f5ffd5b5f81518060208401855e5f93019283525090919050565b5f61368e828661366c565b601760f91b81526136a2600182018661366c565b9050601760f91b8152612577600182018561366c565b5f5f8335601e198436030181126136cd575f5ffd5b8301803591506001600160401b038211156136e6575f5ffd5b6020019150606081023603821315612cc0575f5ffd5b5f6060828403121561370c575f5ffd5b6122798383613176565b5f60208284031215613726575f5ffd5b6122798261324f565b5f610100828403128015613741575f5ffd5b5061374a61306c565b8235815261375b846020850161312a565b602082015261376d8460608501613176565b604082015260c083013561378081612d45565b606082015261379160e0840161324f565b60808201529392505050565b5f600182016137ae576137ae61335e565b5060010190565b5f602082840312156137c5575f5ffd5b81516001600160401b038111156137da575f5ffd5b8201608081850312156137eb575f5ffd5b6137f36130b6565b81518152602082015161380581612d45565b60208201526040820151613818816133bd565b604082015260608201516001600160401b03811115613835575f5ffd5b80830192505084601f830112613849575f5ffd5b81516138576131f8826133ca565b81815286602083860101111561386b575f5ffd5b8160208501602083015e5f918101602001919091526060820152949350505050565b601f8211156109bf57805f5260205f20601f840160051c810160208510156138b25750805b601f840160051c820191505b81811015610645575f81556001016138be565b81516001600160401b038111156138ea576138ea613058565b6138fe816138f88454613385565b8461388d565b6020601f821160018114613930575f83156139195750848201515b5f19600385901b1c1916600184901b178455610645565b5f84815260208120601f198516915b8281101561395f578785015182556020948501946001909201910161393f565b508482101561397c57868401515f19600387901b60f8161c191681555b50505050600190811b01905550565b634e487b7160e01b5f52602160045260245ffd5b5f602082840312156139af575f5ffd5b8151612279816133bd565b5f604082016040835280855180835260608501915060608160051b8601019250602087015f5b82811015613a1157605f198786030184526139fc858351612ec7565b945060209384019391909101906001016139e0565b505050508281036020840152613a278185612e2c565b95945050505050565b8981526bffffffffffffffffffffffff198960601b1660208201526bffffffffffffffffffffffff198860601b1660348201526001600160401b0360c01b8760c01b1660488201526001600160401b0360c01b8660c01b16605082015284151560f81b60588201528360598201525f613aac607983018561366c565b60e09390931b6001600160e01b031916835250506004019897505050505050505056fea2646970667358221220a61a71cef18ecf14a09155530e0d08d0bb2947f5d7f24f82f4a0a527e51c478a64736f6c634300081b0033",
  "linkReferences": {},
  "deployedLinkReferences": {}
}