{
  "_format": "hh-sol-artifact-1",
  "contractName": "CrossChainBloomFilter",
  "sourceName": "contracts/CrossChainBloomFilter.sol",
  "abi": [
    {
      "inputs": [],
      "stateMutability": "nonpayable",
      "type": "constructor"
    },
    {
      "anonymous": false,
      "inputs": [
        {
          "indexed": false,
          "internalType": "uint256",
          "name": "newEntries",
          "type": "uint256"
        },
        {
          "indexed": false,
          "internalType": "bytes32",
          "name": "sourceChainId",
          "type": "bytes32"
        }
      ],
      "name": "BloomSynced",
      "type": "event"
    },
    {
      "anonymous": false,
      "inputs": [
        {
          "indexed": true,
          "internalType": "bytes32",
          "name": "pHashSaltKey",
          "type": "bytes32"
        }
      ],
      "name": "BloomUpdated",
      "type": "event"
    },
    {
      "inputs": [
        {
          "internalType": "bytes32",
          "name": "pHashSaltKey",
          "type": "bytes32"
        }
      ],
      "name": "add",
      "outputs": [],
      "stateMutability": "nonpayable",
      "type": "function"
    },
    {
      "inputs": [
        {
          "internalType": "address",
          "name": "adder",
          "type": "address"
        }
      ],
      "name": "authorizeAdder",
      "outputs": [],
      "stateMutability": "nonpayable",
      "type": "function"
    },
    {
      "inputs": [
        {
          "internalType": "address",
          "name": "",
          "type": "address"
        }
      ],
      "name": "authorizedAdders",
      "outputs": [
        {
          "internalType": "bool",
          "name": "",
          "type": "bool"
        }
      ],
      "stateMutability": "view",
      "type": "function"
    },
    {
      "inputs": [
        {
          "internalType": "uint256",
          "name": "",
          "type": "uint256"
        }
      ],
      "name": "bloomFilter",
      "outputs": [
        {
          "internalType": "uint256",
          "name": "",
          "type": "uint256"
        }
      ],
      "stateMutability": "view",
      "type": "function"
    },
    {
      "inputs": [],
      "name": "entryCount",
      "outputs": [
        {
          "internalType": "uint256",
          "name": "",
          "type": "uint256"
        }
      ],
      "stateMutability": "view",
      "type": "function"
    },
    {
      "inputs": [
        {
          "internalType": "bytes32",
          "name": "pHashSaltKey",
          "type": "bytes32"
        }
      ],
      "name": "mightContain",
      "outputs": [
        {
          "internalType": "bool",
          "name": "",
          "type": "bool"
        }
      ],
      "stateMutability": "view",
      "type": "function"
    },
    {
      "inputs": [],
      "name": "owner",
      "outputs": [
        {
          "internalType": "address",
          "name": "",
          "type": "address"
        }
      ],
      "stateMutability": "view",
      "type": "function"
    },
    {
      "inputs": [
        {
          "internalType": "bytes32[]",
          "name": "pHashSaltKeys",
          "type": "bytes32[]"
        },
        {
          "internalType": "bytes32",
          "name": "sourceChainId",
          "type": "bytes32"
        }
      ],
      "name": "syncFromChain",
      "outputs": [],
      "stateMutability": "nonpayable",
      "type": "function"
    }
  ],
  "bytecode": "0x6080604052348015600e575f5ffd5b50604180546001600160a01b0319163317905561064b8061002e5f395ff3fe608060405234801561000f575f5ffd5b5060043610610085575f3560e01c806349ace8ac1161005857806349ace8ac146100f05780635e319a3d146101125780638da5cb5b14610125578063ae48d59e14610150575f5ffd5b80630cbb0f8314610089578063233f50b6146100a5578063446bffba146100c857806348db5336146100dd575b5f5ffd5b61009260405481565b6040519081526020015b60405180910390f35b6100b86100b33660046104c9565b610163565b604051901515815260200161009c565b6100db6100d63660046104c9565b61020f565b005b6100926100eb3660046104c9565b6102c2565b6100b86100fe3660046104e0565b60426020525f908152604090205460ff1681565b6100db6101203660046104e0565b6102d7565b604154610138906001600160a01b031681565b6040516001600160a01b03909116815260200161009c565b6100db61015e36600461050d565b610340565b5f805b600a811015610206575f614000848360405160200161018f929190918252602082015260400190565b604051602081830303815290604052805190602001205f1c6101b19190610596565b90505f6101c0610100836105bd565b90505f6101cf61010084610596565b90506001811b5f83604081106101e7576101e76105d0565b0154165f036101fb57505f95945050505050565b505050600101610166565b50600192915050565b6041546001600160a01b03163314806102365750335f9081526042602052604090205460ff165b6102785760405162461bcd60e51b815260206004820152600e60248201526d139bdd08185d5d1a1bdc9a5e995960921b60448201526064015b60405180910390fd5b6102818161042f565b60408054905f610290836105e4565b909155505060405181907fab1fb4379a69f37f988f62395b3c83ecab33a04d4c3b7c1629427119213ee2d6905f90a250565b5f81604081106102d0575f80fd5b0154905081565b6041546001600160a01b0316331461031d5760405162461bcd60e51b81526020600482015260096024820152682737ba1037bbb732b960b91b604482015260640161026f565b6001600160a01b03165f908152604260205260409020805460ff19166001179055565b6041546001600160a01b03163314806103675750335f9081526042602052604090205460ff165b6103a45760405162461bcd60e51b815260206004820152600e60248201526d139bdd08185d5d1a1bdc9a5e995960921b604482015260640161026f565b5f5b828110156103d7576103cf8484838181106103c3576103c36105d0565b9050602002013561042f565b6001016103a6565b508282905060405f8282546103ec91906105fc565b909155505060408051838152602081018390527f07609c5992cd61fafa1e7236a11f2be4d7168d58793f8202e0d8acf4f2ee27c4910160405180910390a1505050565b5f5b600a8110156104c5575f614000838360405160200161045a929190918252602082015260400190565b604051602081830303815290604052805190602001205f1c61047c9190610596565b90505f61048b610100836105bd565b90505f61049a61010084610596565b90506001811b5f83604081106104b2576104b26105d0565b0180549091179055505050600101610431565b5050565b5f602082840312156104d9575f5ffd5b5035919050565b5f602082840312156104f0575f5ffd5b81356001600160a01b0381168114610506575f5ffd5b9392505050565b5f5f5f6040848603121561051f575f5ffd5b833567ffffffffffffffff811115610535575f5ffd5b8401601f81018613610545575f5ffd5b803567ffffffffffffffff81111561055b575f5ffd5b8660208260051b840101111561056f575f5ffd5b6020918201979096509401359392505050565b634e487b7160e01b5f52601260045260245ffd5b5f826105a4576105a4610582565b500690565b634e487b7160e01b5f52601160045260245ffd5b5f826105cb576105cb610582565b500490565b634e487b7160e01b5f52603260045260245ffd5b5f600182016105f5576105f56105a9565b5060010190565b8082018082111561060f5761060f6105a9565b9291505056fea2646970667358221220538fa89ad4ac399475a0a49ed891ad273f9fe7e4abfad27e3275a4585aa178c664736f6c634300081b0033",
  "linkReferences": {},
  "deployedLinkReferences": {}
}