{
  "_format": "hh-sol-artifact-1",
  "contractName": "ImageAuthResolver",
  "sourceName": "contracts/ImageAuthResolver.sol",
  "abi": [
    {
      "inputs": [
        {
          "internalType": "contract IEAS",
          "name": "eas",
          "type": "address"
        },
        {
          "internalType": "contract IKeyRegistry",
          "name": "_keyRegistry",
          "type": "address"
        },
        {
          "internalType": "contract ICrossChainBloomFilter",
          "name": "_bloomFilter",
          "type": "address"
        }
      ],
      "stateMutability": "nonpayable",
      "type": "constructor"
    },
    {
      "inputs": [],
      "name": "AccessDenied",
      "type": "error"
    },
    {
      "inputs": [],
      "name": "InsufficientValue",
      "type": "error"
    },
    {
      "inputs": [],
      "name": "InvalidEAS",
      "type": "error"
    },
    {
      "inputs": [],
      "name": "InvalidLength",
      "type": "error"
    },
    {
      "inputs": [],
      "name": "NotPayable",
      "type": "error"
    },
    {
      "anonymous": false,
      "inputs": [
        {
          "indexed": true,
          "internalType": "address",
          "name": "attester",
          "type": "address"
        },
        {
          "indexed": true,
          "internalType": "bytes16",
          "name": "sigPrefix",
          "type": "bytes16"
        },
        {
          "indexed": false,
          "internalType": "bytes32",
          "name": "pHashSaltKey",
          "type": "bytes32"
        },
        {
          "indexed": false,
          "internalType": "bytes32",
          "name": "attestationUID",
          "type": "bytes32"
        }
      ],
      "name": "ImageRegistered",
      "type": "event"
    },
    {
      "inputs": [
        {
          "components": [
            {
              "internalType": "bytes32",
              "name": "uid",
              "type": "bytes32"
            },
            {
              "internalType": "bytes32",
              "name": "schema",
              "type": "bytes32"
            },
            {
              "internalType": "uint64",
              "name": "time",
              "type": "uint64"
            },
            {
              "internalType": "uint64",
              "name": "expirationTime",
              "type": "uint64"
            },
            {
              "internalType": "uint64",
              "name": "revocationTime",
              "type": "uint64"
            },
            {
              "internalType": "bytes32",
              "name": "refUID",
              "type": "bytes32"
            },
            {
              "internalType": "address",
              "name": "recipient",
              "type": "address"
            },
            {
              "internalType": "address",
              "name": "attester",
              "type": "address"
            },
            {
              "internalType": "bool",
              "name": "revocable",
              "type": "bool"
            },
            {
              "internalType": "bytes",
              "name": "data",
              "type": "bytes"
            }
          ],
          "internalType": "struct Attestation",
          "name": "attestation",
          "type": "tuple"
        }
      ],
      "name": "attest",
      "outputs": [
        {
          "internalType": "bool",
          "name": "",
          "type": "bool"
        }
      ],
      "stateMutability": "payable",
      "type": "function"
    },
    {
      "inputs": [],
      "name": "bloomFilter",
      "outputs": [
        {
          "internalType": "contract ICrossChainBloomFilter",
          "name": "",
          "type": "address"
        }
      ],
      "stateMutability": "view",
      "type": "function"
    },
    {
      "inputs": [
        {
          "internalType": "bytes24",
          "name": "pHash",
          "type": "bytes24"
        },
        {
          "internalType": "bytes2",
          "name": "salt",
          "type": "bytes2"
        }
      ],
      "name": "isDuplicate",
      "outputs": [
        {
          "internalType": "bool",
          "name": "",
          "type": "bool"
        }
      ],
      "stateMutability": "view",
      "type": "function"
    },
    {
      "inputs": [],
      "name": "isPayable",
      "outputs": [
        {
          "internalType": "bool",
          "name": "",
          "type": "bool"
        }
      ],
      "stateMutability": "pure",
      "type": "function"
    },
    {
      "inputs": [],
      "name": "keyRegistry",
      "outputs": [
        {
          "internalType": "contract IKeyRegistry",
          "name": "",
          "type": "address"
        }
      ],
      "stateMutability": "view",
      "type": "function"
    },
    {
      "inputs": [
        {
          "internalType": "bytes24",
          "name": "pHash",
          "type": "bytes24"
        },
        {
          "internalType": "bytes2",
          "name": "salt",
          "type": "bytes2"
        }
      ],
      "name": "mightBeDuplicateCrossChain",
      "outputs": [
        {
          "internalType": "bool",
          "name": "",
          "type": "bool"
        }
      ],
      "stateMutability": "view",
      "type": "function"
    },
    {
      "inputs": [
        {
          "components": [
            {
              "internalType": "bytes32",
              "name": "uid",
              "type": "bytes32"
            },
            {
              "internalType": "bytes32",
              "name": "schema",
              "type": "bytes32"
            },
            {
              "internalType": "uint64",
              "name": "time",
              "type": "uint64"
            },
            {
              "internalType": "uint64",
              "name": "expirationTime",
              "type": "uint64"
            },
            {
              "internalType": "uint64",
              "name": "revocationTime",
              "type": "uint64"
            },
            {
              "internalType": "bytes32",
              "name": "refUID",
              "type": "bytes32"
            },
            {
              "internalType": "address",
              "name": "recipient",
              "type": "address"
            },
            {
              "internalType": "address",
              "name": "attester",
              "type": "address"
            },
            {
              "internalType": "bool",
              "name": "revocable",
              "type": "bool"
            },
            {
              "internalType": "bytes",
              "name": "data",
              "type": "bytes"
            }
          ],
          "internalType": "struct Attestation[]",
          "name": "attestations",
          "type": "tuple[]"
        },
        {
          "internalType": "uint256[]",
          "name": "values",
          "type": "uint256[]"
        }
      ],
      "name": "multiAttest",
      "outputs": [
        {
          "internalType": "bool",
          "name": "",
          "type": "bool"
        }
      ],
      "stateMutability": "payable",
      "type": "function"
    },
    {
      "inputs": [
        {
          "components": [
            {
              "internalType": "bytes32",
              "name": "uid",
              "type": "bytes32"
            },
            {
              "internalType": "bytes32",
              "name": "schema",
              "type": "bytes32"
            },
            {
              "internalType": "uint64",
              "name": "time",
              "type": "uint64"
            },
            {
              "internalType": "uint64",
              "name": "expirationTime",
              "type": "uint64"
            },
            {
              "internalType": "uint64",
              "name": "revocationTime",
              "type": "uint64"
            },
            {
              "internalType": "bytes32",
              "name": "refUID",
              "type": "bytes32"
            },
            {
              "internalType": "address",
              "name": "recipient",
              "type": "address"
            },
            {
              "internalType": "address",
              "name": "attester",
              "type": "address"
            },
            {
              "internalType": "bool",
              "name": "revocable",
              "type": "bool"
            },
            {
              "internalType": "bytes",
              "name": "data",
              "type": "bytes"
            }
          ],
          "internalType": "struct Attestation[]",
          "name": "attestations",
          "type": "tuple[]"
        },
        {
          "internalType": "uint256[]",
          "name": "values",
          "type": "uint256[]"
        }
      ],
      "name": "multiRevoke",
      "outputs": [
        {
          "internalType": "bool",
          "name": "",
          "type": "bool"
        }
      ],
      "stateMutability": "payable",
      "type": "function"
    },
    {
      "inputs": [
        {
          "internalType": "bytes32",
          "name": "",
          "type": "bytes32"
        }
      ],
      "name": "pHashSaltIndex",
      "outputs": [
        {
          "internalType": "bytes32",
          "name": "",
          "type": "bytes32"
        }
      ],
      "stateMutability": "view",
      "type": "function"
    },
    {
      "inputs": [
        {
          "components": [
            {
              "internalType": "bytes32",
              "name": "uid",
              "type": "bytes32"
            },
            {
              "internalType": "bytes32",
              "name": "schema",
              "type": "bytes32"
            },
            {
              "internalType": "uint64",
              "name": "time",
              "type": "uint64"
            },
            {
              "internalType": "uint64",
              "name": "expirationTime",
              "type": "uint64"
            },
            {
              "internalType": "uint64",
              "name": "revocationTime",
              "type": "uint64"
            },
            {
              "internalType": "bytes32",
              "name": "refUID",
              "type": "bytes32"
            },
            {
              "internalType": "address",
              "name": "recipient",
              "type": "address"
            },
            {
              "internalType": "address",
              "name": "attester",
              "type": "address"
            },
            {
              "internalType": "bool",
              "name": "revocable",
              "type": "bool"
            },
            {
              "internalType": "bytes",
              "name": "data",
              "type": "bytes"
            }
          ],
          "internalType": "struct Attestation",
          "name": "attestation",
          "type": "tuple"
        }
      ],
      "name": "revoke",
      "outputs": [
        {
          "internalType": "bool",
          "name": "",
          "type": "bool"
        }
      ],
      "stateMutability": "payable",
      "type": "function"
    },
    {
      "inputs": [
        {
          "internalType": "bytes16",
          "name": "",
          "type": "bytes16"
        }
      ],
      "name": "sigPrefixIndex",
      "outputs": [
        {
          "internalType": "bytes32",
          "name": "",
          "type": "bytes32"
        }
      ],
      "stateMutability": "view",
      "type": "function"
    },
    {
      "inputs": [],
      "name": "version",
      "outputs": [
        {
          "internalType": "string",
          "name": "",
          "type": "string"
        }
      ],
      "stateMutability": "view",
      "type": "function"
    },
    {
      "stateMutability": "payable",
      "type": "receive"
    }
  ],
  "bytecode": "0x610100604052348015610010575f5ffd5b50604051610f35380380610f3583398101604081905261002f916100b5565b6001608052600360a0525f60c052826001600160a01b038116610065576040516341bc07ff60e11b815260040160405180910390fd5b6001600160a01b0390811660e052600280549382166001600160a01b0319948516179055600380549290911691909216179055506100ff565b6001600160a01b03811681146100b2575f5ffd5b50565b5f5f5f606084860312156100c7575f5ffd5b83516100d28161009e565b60208501519093506100e38161009e565b60408501519092506100f48161009e565b809150509250925092565b60805160a05160c05160e051610e036101325f395f61063a01525f6103aa01525f61038101525f6103580152610e035ff3fe6080604052600436106100a8575f3560e01c806391db0b7e1161006257806391db0b7e146101a75780639eacd2c1146101ba578063ce46e046146101f3578063e49617e114610205578063e4efcf2414610218578063e60c350514610243575f5ffd5b8063086b5198146100ca57806336028745146101065780633611caa21461013557806354fd4d50146101545780635ff5bd521461017557806388e5b2d914610194575f5ffd5b366100c657604051631574f9f360e01b815260040160405180910390fd5b5f5ffd5b3480156100d5575f5ffd5b506002546100e9906001600160a01b031681565b6040516001600160a01b0390911681526020015b60405180910390f35b348015610111575f5ffd5b5061012561012036600461098e565b610256565b60405190151581526020016100fd565b348015610140575f5ffd5b5061012561014f36600461098e565b61029a565b34801561015f575f5ffd5b50610168610351565b6040516100fd91906109ed565b348015610180575f5ffd5b506003546100e9906001600160a01b031681565b6101256101a2366004610a4e565b6103f4565b6101256101b5366004610a4e565b6104bd565b3480156101c5575f5ffd5b506101e56101d4366004610aba565b5f6020819052908152604090205481565b6040519081526020016100fd565b3480156101fe575f5ffd5b505f610125565b610125610213366004610ad1565b610578565b348015610223575f5ffd5b506101e5610232366004610b20565b60016020525f908152604090205481565b610125610251366004610ad1565b61058c565b5f5f838360405160200161026b929190610b39565b60408051601f1981840301815291815281516020928301205f9081529182905290205415159150505b92915050565b6003545f906001600160a01b03166102b357505f610294565b5f83836040516020016102c7929190610b39565b60408051808303601f1901815290829052805160209091012060035463119fa85b60e11b8352600483018290529092506001600160a01b03169063233f50b690602401602060405180830381865afa158015610325573d5f5f3e3d5ffd5b505050506040513d601f19601f820116820180604052508101906103499190610b5e565b949350505050565b606061037c7f000000000000000000000000000000000000000000000000000000000000000061059f565b6103a57f000000000000000000000000000000000000000000000000000000000000000061059f565b6103ce7f000000000000000000000000000000000000000000000000000000000000000061059f565b6040516020016103e093929190610b94565b604051602081830303815290604052905090565b5f6103fd61062f565b8382811461041e5760405163251f56a160e21b815260040160405180910390fd5b345f5b828110156104af575f86868381811061043c5761043c610bd3565b905060200201359050828111156104665760405163044044a560e21b815260040160405180910390fd5b61049389898481811061047b5761047b610bd3565b905060200281019061048d9190610be7565b50600190565b6104a3575f945050505050610349565b90910390600101610421565b506001979650505050505050565b5f6104c661062f565b838281146104e75760405163251f56a160e21b815260040160405180910390fd5b345f5b828110156104af575f86868381811061050557610505610bd3565b9050602002013590508281111561052f5760405163044044a560e21b815260040160405180910390fd5b61055c89898481811061054457610544610bd3565b90506020028101906105569190610be7565b8261067a565b61056c575f945050505050610349565b909103906001016104ea565b5f61058161062f565b60015b90505b919050565b5f61059561062f565b610584823461067a565b60605f6105ab83610888565b60010190505f8167ffffffffffffffff8111156105ca576105ca610c06565b6040519080825280601f01601f1916602001820160405280156105f4576020820181803683370190505b5090508181016020015b5f19016f181899199a1a9b1b9c1cb0b131b232b360811b600a86061a8153600a85049450846105fe57509392505050565b336001600160a01b037f0000000000000000000000000000000000000000000000000000000000000000161461067857604051634ca8886760e01b815260040160405180910390fd5b565b5f8080808061068d610120880188610c1a565b81019061069a9190610ce8565b5050955095509550505093505f82826040516020016106ba929190610b39565b60408051601f1981840301815291815281516020928301205f81815292839052912054909150156106f2575f95505050505050610294565b6002546001600160a01b0316156107835760025460405163b4209d6f60e01b81526001600160a01b039091169063b4209d6f906107339087906004016109ed565b602060405180830381865afa15801561074e573d5f5f3e3d5ffd5b505050506040513d601f19601f820116820180604052508101906107729190610b5e565b610783575f95505050505050610294565b5f818152602081815260408083208b35908190556001600160801b0319891684526001909252909120556003546001600160a01b03161561081857600354604051632235ffdd60e11b8152600481018390526001600160a01b039091169063446bffba906024015f604051808303815f87803b158015610801575f5ffd5b505af1158015610813573d5f5f3e3d5ffd5b505050505b6001600160801b031985166108346101008a0160e08b01610da7565b604080518481528b3560208201526001600160a01b0392909216917f3b5dd07c0ac410439f0625fa6eeab1d25d23a80aff0ef796cbba22917ab6c6f8910160405180910390a3506001979650505050505050565b5f8072184f03e93ff9f4daa797ed6e38ed64bf6a1f0160401b83106108c65772184f03e93ff9f4daa797ed6e38ed64bf6a1f0160401b830492506040015b6d04ee2d6d415b85acef810000000083106108f2576d04ee2d6d415b85acef8100000000830492506020015b662386f26fc10000831061091057662386f26fc10000830492506010015b6305f5e1008310610928576305f5e100830492506008015b612710831061093c57612710830492506004015b6064831061094e576064830492506002015b600a83106102945760010192915050565b803567ffffffffffffffff1981168114610587575f5ffd5b80356001600160f01b031981168114610587575f5ffd5b5f5f6040838503121561099f575f5ffd5b6109a88361095f565b91506109b660208401610977565b90509250929050565b5f81518084528060208401602086015e5f602082860101526020601f19601f83011685010191505092915050565b602081525f6109ff60208301846109bf565b9392505050565b5f5f83601f840112610a16575f5ffd5b50813567ffffffffffffffff811115610a2d575f5ffd5b6020830191508360208260051b8501011115610a47575f5ffd5b9250929050565b5f5f5f5f60408587031215610a61575f5ffd5b843567ffffffffffffffff811115610a77575f5ffd5b610a8387828801610a06565b909550935050602085013567ffffffffffffffff811115610aa2575f5ffd5b610aae87828801610a06565b95989497509550505050565b5f60208284031215610aca575f5ffd5b5035919050565b5f60208284031215610ae1575f5ffd5b813567ffffffffffffffff811115610af7575f5ffd5b820161014081850312156109ff575f5ffd5b80356001600160801b031981168114610587575f5ffd5b5f60208284031215610b30575f5ffd5b6109ff82610b09565b67ffffffffffffffff199290921682526001600160f01b0319166018820152601a0190565b5f60208284031215610b6e575f5ffd5b815180151581146109ff575f5ffd5b5f81518060208401855e5f93019283525090919050565b5f610b9f8286610b7d565b601760f91b8152610bb36001820186610b7d565b9050601760f91b8152610bc96001820185610b7d565b9695505050505050565b634e487b7160e01b5f52603260045260245ffd5b5f823561013e19833603018112610bfc575f5ffd5b9190910192915050565b634e487b7160e01b5f52604160045260245ffd5b5f5f8335601e19843603018112610c2f575f5ffd5b83018035915067ffffffffffffffff821115610c49575f5ffd5b602001915036819003821315610a47575f5ffd5b5f82601f830112610c6c575f5ffd5b813567ffffffffffffffff811115610c8657610c86610c06565b604051601f8201601f19908116603f0116810167ffffffffffffffff81118282101715610cb557610cb5610c06565b604052818152838201602001851015610ccc575f5ffd5b816020850160208301375f918101602001919091529392505050565b5f5f5f5f5f5f5f5f610100898b031215610d00575f5ffd5b610d0989610b09565b9750602089013567ffffffffffffffff811115610d24575f5ffd5b610d308b828c01610c5d565b975050604089013560ff81168114610d46575f5ffd5b9550606089013567ffffffffffffffff811115610d61575f5ffd5b610d6d8b828c01610c5d565b955050610d7c60808a0161095f565b9350610d8a60a08a01610977565b979a969950949793969295929450505060c08201359160e0013590565b5f60208284031215610db7575f5ffd5b81356001600160a01b03811681146109ff575f5ffdfea264697066735822122038849df64275d0373d13a2bfebc55d7402ef9b1768bb6b12b533ed20f96a941564736f6c634300081b0033",
  "linkReferences": {},
  "deployedLinkReferences": {}
}