{
  "_format": "hh-sol-artifact-1",
  "contractName": "KeyRegistry",
  "sourceName": "contracts/KeyRegistry.sol",
  "abi": [
    {
      "anonymous": false,
      "inputs": [
        {
          "indexed": true,
          "internalType": "address",
          "name": "user",
          "type": "address"
        },
        {
          "indexed": true,
          "internalType": "uint256",
          "name": "keyIndex",
          "type": "uint256"
        },
        {
          "indexed": false,
          "internalType": "bytes",
          "name": "publicKey",
          "type": "bytes"
        },
        {
          "indexed": false,
          "internalType": "uint8",
          "name": "scheme",
          "type": "uint8"
        }
      ],
      "name": "KeyActivated",
      "type": "event"
    },
    {
      "anonymous": false,
      "inputs": [
        {
          "indexed": true,
          "internalType": "address",
          "name": "user",
          "type": "address"
        },
        {
          "indexed": true,
          "internalType": "uint256",
          "name": "keyIndex",
          "type": "uint256"
        },
        {
          "indexed": false,
          "internalType": "uint64",
          "name": "revokedAt",
          "type": "uint64"
        }
      ],
      "name": "KeyRevoked",
      "type": "event"
    },
    {
      "inputs": [
        {
          "internalType": "address",
          "name": "",
          "type": "address"
        }
      ],
      "name": "activeKeyIndex",
      "outputs": [
        {
          "internalType": "uint256",
          "name": "",
          "type": "uint256"
        }
      ],
      "stateMutability": "view",
      "type": "function"
    },
    {
      "inputs": [
        {
          "internalType": "address",
          "name": "user",
          "type": "address"
        },
        {
          "internalType": "uint256",
          "name": "index",
          "type": "uint256"
        }
      ],
      "name": "getKey",
      "outputs": [
        {
          "internalType": "bytes",
          "name": "publicKey",
          "type": "bytes"
        },
        {
          "internalType": "uint8",
          "name": "scheme",
          "type": "uint8"
        },
        {
          "internalType": "uint64",
          "name": "activatedAt",
          "type": "uint64"
        },
        {
          "internalType": "uint64",
          "name": "revokedAt",
          "type": "uint64"
        }
      ],
      "stateMutability": "view",
      "type": "function"
    },
    {
      "inputs": [
        {
          "internalType": "bytes",
          "name": "publicKey",
          "type": "bytes"
        }
      ],
      "name": "isKeyCurrentlyValid",
      "outputs": [
        {
          "internalType": "bool",
          "name": "",
          "type": "bool"
        }
      ],
      "stateMutability": "view",
      "type": "function"
    },
    {
      "inputs": [
        {
          "internalType": "bytes",
          "name": "publicKey",
          "type": "bytes"
        },
        {
          "internalType": "uint64",
          "name": "timestamp",
          "type": "uint64"
        }
      ],
      "name": "isKeyValidAt",
      "outputs": [
        {
          "internalType": "bool",
          "name": "",
          "type": "bool"
        }
      ],
      "stateMutability": "view",
      "type": "function"
    },
    {
      "inputs": [
        {
          "internalType": "address",
          "name": "user",
          "type": "address"
        }
      ],
      "name": "keyCount",
      "outputs": [
        {
          "internalType": "uint256",
          "name": "",
          "type": "uint256"
        }
      ],
      "stateMutability": "view",
      "type": "function"
    },
    {
      "inputs": [
        {
          "internalType": "bytes32",
          "name": "",
          "type": "bytes32"
        }
      ],
      "name": "pkIndex",
      "outputs": [
        {
          "internalType": "uint256",
          "name": "",
          "type": "uint256"
        }
      ],
      "stateMutability": "view",
      "type": "function"
    },
    {
      "inputs": [
        {
          "internalType": "bytes32",
          "name": "",
          "type": "bytes32"
        }
      ],
      "name": "pkOwner",
      "outputs": [
        {
          "internalType": "address",
          "name": "",
          "type": "address"
        }
      ],
      "stateMutability": "view",
      "type": "function"
    },
    {
      "inputs": [
        {
          "internalType": "bytes",
          "name": "publicKey",
          "type": "bytes"
        },
        {
          "internalType": "uint8",
          "name": "scheme",
          "type": "uint8"
        }
      ],
      "name": "registerKey",
      "outputs": [],
      "stateMutability": "nonpayable",
      "type": "function"
    },
    {
      "inputs": [
        {
          "internalType": "uint256",
          "name": "keyIndex",
          "type": "uint256"
        }
      ],
      "name": "revokeKey",
      "outputs": [],
      "stateMutability": "nonpayable",
      "type": "function"
    },
    {
      "inputs": [
        {
          "internalType": "address",
          "name": "",
          "type": "address"
        },
        {
          "internalType": "uint256",
          "name": "",
          "type": "uint256"
        }
      ],
      "name": "signingKeys",
      "outputs": [
        {
          "internalType": "bytes",
          "name": "publicKey",
          "type": "bytes"
        },
        {
          "internalType": "uint8",
          "name": "scheme",
          "type": "uint8"
        },
        {
          "internalType": "uint64",
          "name": "activatedAt",
          "type": "uint64"
        },
        {
          "internalType": "uint64",
          "name": "revokedAt",
          "type": "uint64"
        },
        {
          "internalType": "bytes32",
          "name": "pkHash",
          "type": "bytes32"
        }
      ],
      "stateMutability": "view",
      "type": "function"
    }
  ],
  "bytecode": "0x6080604052348015600e575f5ffd5b50610e2c8061001c5f395ff3fe608060405234801561000f575f5ffd5b506004361061009b575f3560e01c8063a369f72e11610063578063a369f72e14610161578063b4209d6f14610184578063bc2e6f68146101a7578063c46cbce5146101ba578063f62a2a7e146101de575f5ffd5b80632562ca9b1461009f57806325880a8e146100b457806352e5cd95146100e6578063623b707b146100f9578063739687d914610139575b5f5ffd5b6100b26100ad366004610a44565b6101fd565b005b6100d36100c2366004610a9b565b60026020525f908152604090205481565b6040519081526020015b60405180910390f35b6100b26100f4366004610a9b565b6104fe565b610121610107366004610a9b565b60016020525f90815260409020546001600160a01b031681565b6040516001600160a01b0390911681526020016100dd565b6100d3610147366004610acd565b6001600160a01b03165f9081526020819052604090205490565b61017461016f366004610ae6565b610663565b6040516100dd9493929190610b3c565b610197610192366004610b77565b610772565b60405190151581526020016100dd565b6101976101b5366004610bb5565b61081b565b6101cd6101c8366004610ae6565b61091b565b6040516100dd959493929190610c07565b6100d36101ec366004610acd565b60036020525f908152604090205481565b5f838360405161020e929190610c47565b60408051918290039091205f818152600160205291909120549091506001600160a01b03161561027d5760405162461bcd60e51b81526020600482015260156024820152741412c8185b1c9958591e481c9959da5cdd195c9959605a1b60448201526064015b60405180910390fd5b335f908152602081905260409020541561037b57335f90815260036020908152604080832054918390529091208054829081106102bc576102bc610c56565b5f91825260208220600160039092020101546001600160401b03600160481b90910416900361037957335f90815260208190526040902080544291908390811061030857610308610c56565b5f91825260209182902060039190910201600101805467ffffffffffffffff60481b1916600160481b6001600160401b0394851602179055604051429092168252829133917f481b33c1be243b48aecf9c2c81175c7a2815b30e6ee4d7b8319df11acc897392910160405180910390a35b505b335f90815260208181526040918290208054835160c0601f89018590049094028101840190945260a084018781529093919282919089908990819085018382808284375f92018290525093855250505060ff87166020808401919091526001600160401b034216604084015260608301829052608090920186905283546001810185559381522081519192600302019081906104179082610d02565b506020828101516001808401805460408088015160608901516001600160401b03908116600160481b0267ffffffffffffffff60481b19919092166101000268ffffffffffffffffff1990941660ff9097169690961792909217949094161790556080909401516002938401555f86815293825280842080546001600160a01b0319163390811790915592825280842085905582845260039091529182902083905590518291907f71811fe40367b55c86b49de2c7aeafc8d9c90d407a1980b4c982620c487f408c906104ef90899089908990610dbc565b60405180910390a35050505050565b335f90815260208190526040902054811061054b5760405162461bcd60e51b815260206004820152600d60248201526c092dcecc2d8d2c840d2dcc8caf609b1b6044820152606401610274565b335f90815260208190526040902080548290811061056b5761056b610c56565b5f918252602090912060039091020160010154600160481b90046001600160401b0316156105cd5760405162461bcd60e51b815260206004820152600f60248201526e105b1c9958591e481c995d9bdad959608a1b6044820152606401610274565b335f9081526020819052604090208054429190839081106105f0576105f0610c56565b5f91825260209182902060039190910201600101805467ffffffffffffffff60481b1916600160481b6001600160401b0394851602179055604051429092168252829133917f481b33c1be243b48aecf9c2c81175c7a2815b30e6ee4d7b8319df11acc897392910160405180910390a350565b60605f5f5f5f5f5f886001600160a01b03166001600160a01b031681526020019081526020015f20868154811061069c5761069c610c56565b5f91825260209091206001600390920201908101548154919250829160ff8216916001600160401b036101008204811692600160481b909204169084906106e290610c7e565b80601f016020809104026020016040519081016040528092919081815260200182805461070e90610c7e565b80156107595780601f1061073057610100808354040283529160200191610759565b820191905f5260205f20905b81548152906001019060200180831161073c57829003601f168201915b5050505050935094509450945094505092959194509250565b5f5f8383604051610784929190610c47565b60408051918290039091205f818152600160205291909120549091506001600160a01b0316806107b8575f92505050610815565b6001600160a01b0381165f908152602081815260408083208584526002909252822054815481106107eb576107eb610c56565b5f918252602090912060039091020160010154600160481b90046001600160401b03161593505050505b92915050565b5f5f848460405161082d929190610c47565b60408051918290039091205f818152600160205291909120549091506001600160a01b031680610861575f92505050610914565b6001600160a01b0381165f9081526020818152604080832085845260029092528220548154811061089457610894610c56565b905f5260205f20906003020190508060010160019054906101000a90046001600160401b03166001600160401b0316856001600160401b03161015801561090e57506001810154600160481b90046001600160401b0316158061090e575060018101546001600160401b03600160481b9091048116908616105b93505050505b9392505050565b5f602052815f5260405f208181548110610933575f80fd5b905f5260205f2090600302015f9150915050805f01805461095390610c7e565b80601f016020809104026020016040519081016040528092919081815260200182805461097f90610c7e565b80156109ca5780601f106109a1576101008083540402835291602001916109ca565b820191905f5260205f20905b8154815290600101906020018083116109ad57829003601f168201915b5050506001840154600290940154929360ff8116936001600160401b03610100830481169450600160481b909204909116915085565b5f5f83601f840112610a10575f5ffd5b5081356001600160401b03811115610a26575f5ffd5b602083019150836020828501011115610a3d575f5ffd5b9250929050565b5f5f5f60408486031215610a56575f5ffd5b83356001600160401b03811115610a6b575f5ffd5b610a7786828701610a00565b909450925050602084013560ff81168114610a90575f5ffd5b809150509250925092565b5f60208284031215610aab575f5ffd5b5035919050565b80356001600160a01b0381168114610ac8575f5ffd5b919050565b5f60208284031215610add575f5ffd5b61091482610ab2565b5f5f60408385031215610af7575f5ffd5b610b0083610ab2565b946020939093013593505050565b5f81518084528060208401602086015e5f602082860101526020601f19601f83011685010191505092915050565b608081525f610b4e6080830187610b0e565b60ff959095166020830152506001600160401b0392831660408201529116606090910152919050565b5f5f60208385031215610b88575f5ffd5b82356001600160401b03811115610b9d575f5ffd5b610ba985828601610a00565b90969095509350505050565b5f5f5f60408486031215610bc7575f5ffd5b83356001600160401b03811115610bdc575f5ffd5b610be886828701610a00565b90945092505060208401356001600160401b0381168114610a90575f5ffd5b60a081525f610c1960a0830188610b0e565b60ff969096166020830152506001600160401b03938416604082015291909216606082015260800152919050565b818382375f9101908152919050565b634e487b7160e01b5f52603260045260245ffd5b634e487b7160e01b5f52604160045260245ffd5b600181811c90821680610c9257607f821691505b602082108103610cb057634e487b7160e01b5f52602260045260245ffd5b50919050565b601f821115610cfd57805f5260205f20601f840160051c81016020851015610cdb5750805b601f840160051c820191505b81811015610cfa575f8155600101610ce7565b50505b505050565b81516001600160401b03811115610d1b57610d1b610c6a565b610d2f81610d298454610c7e565b84610cb6565b6020601f821160018114610d61575f8315610d4a5750848201515b5f19600385901b1c1916600184901b178455610cfa565b5f84815260208120601f198516915b82811015610d905787850151825560209485019460019092019101610d70565b5084821015610dad57868401515f19600387901b60f8161c191681555b50505050600190811b01905550565b60408152826040820152828460608301375f606084830101525f6060601f19601f860116830101905060ff8316602083015294935050505056fea26469706673582212208ba613aa63e5986e8e86349b68660cdf919127061525783385ac61b3ac7772f064736f6c634300081b0033",
  "linkReferences": {},
  "deployedLinkReferences": {}
}